:1000000019C028C027C026C025C024C023C022C0D4
:1000100021C020C01FC01EC01DC01CC01BC01AC0F4
:1000200019C018C019C116C015C014C013C012C021
:1000300011C010C011241FBECFEFD2E0DEBFCDBF74
:1000400021E0A0E0B1E001C01D92A130B207E1F7CC
:10005000B2D02FC1D5CF9FB7F894389AE3E9F7E033
:100060003197F1F700C000003898E3E0F1E03197F4
:10007000F1F700C0000086B19FBFEFE8F6E03197CE
:10008000F1F700C000008095817008959FB7F89443
:10009000389A2AE02A95F1F700C081113898E3E0F8
:1000A000F1E03197F1F700C0000038989FBF089544
:1000B000EF92FF920F931F93CF93DF93C0E0D0E0B6
:1000C000EE24E394F12C082F10E097010C2E02C0CF
:1000D000220F331F0A94E2F7A80142235323241767
:1000E000350719F481E0D2DF02C080E0CFDF21962E
:1000F000C830D10551F7DF91CF911F910F91FF903B
:10010000EF9008959FB7F894389A2AE02A95F1F76E
:1001100000C0389885E48A95F1F7000086B120EF99
:100120002A95F1F79FBF817008951F93CF93DF93B6
:10013000C0E0D0E010E0E6DF90E00C2E02C0880FB7
:10014000991F0A94E2F7182B2196C830D10599F728
:10015000812FDF91CF911F910895CF937CDF813064
:10016000D9F48CECA5DF84E4A3DF2FEF4EE954E251
:10017000215040405040E1F700C000006CDF8CECA3
:1001800097DF8EEB95DFD1DFC82FCFDF2C2F30E04C
:10019000A901582BCA0102C080E090E0CF910895D8
:1001A000929582958F7089279F70892708958FEF88
:1001B00084B915B8089588E090E029D07894F7DFE5
:1001C000CCDFEEDF082F10E09801ADECBCEC65D081
:1001D000EC01D695C795D695C795D695C7958C2F22
:1001E000805D28D0CE01880F991FCC0FDD1FCC0F6A
:1001F000DD1FCC0FDD1FC80FD91FC8018C1B9D0B45
:10020000805D18D08AE216D083E414D0D9CF9093C1
:10021000C5008093C400E1ECF0E0808188618083B8
:10022000808180688083E2ECF0E08081866080835A
:1002300078940895E0ECF0E0908195FFFDCF8093F5
:10024000C600E0ECF0E0808186FFFDCFE0ECF0E05E
:1002500080818064808308951F920F920FB60F9261
:1002600011248F93AF93BF93EF93FF93E6ECF0E0ED
:10027000808180930001A0ECB0E08C918F778C930B
:10028000809100018083FF91EF91BF91AF918F9199
:100290000F900FBE0F901F901895A29FB001B39FB3
:1002A000C001A39F01D0B29F700D811D1124911D2B
:0602B0000895F894FFCF51
:00000001FF
