:1000000012C021C020C01FC01EC01DC01CC01BC00C
:100010001AC019C018C095C016C015C014C013C0AE
:1000200012C011C010C011241FBECFE5D4E0DEBF46
:10003000CDBF20E0A0E6B0E001C01D92A236B2071D
:10004000E1F7C3D0E1C0DCCF939A95E89A95F1F738
:10005000000092B39F7092BB92B38295807F892BF0
:1000600082BB939885E88A95F1F700000895CF93B5
:10007000C82F611102C0929801C0929A8C2F82956C
:100080008F70E2DF8C2FE0DFCF91089561E0EFDF2A
:10009000089590E4699F800D112460E08068E7DF97
:1000A00008958FE295E70197F1F700C0000083E023
:1000B000CBDF8FE39FE10197F1F700C0000083E001
:1000C000C3DF87EC90E00197F1F700C0000083E008
:1000D000BBDF8FEC97E00197F1F700C0000082E0F2
:1000E000B3DF8FEC97E00197F1F700C0000060E00C
:1000F00088E2BDDF8FEC97E00197F1F700C00000C8
:1001000060E08CE0B4DF8FEC97E00197F1F700C07E
:10011000000060E086E0ABDF8FEC97E00197F1F73D
:1001200000C00000089560E081E0A1DF87EB9BE064
:100130000197F1F700C00000089512BA8FEF81BB5C
:1001400008951F920F920FB60F9211242F933F9391
:100150004F935F936F937F938F939F93AF93BF93CF
:10016000CF93EF93FF93CCB16091600070E08091EA
:1001700061008FDF8C2F8ADF809161008F3020F447
:100180008F5F809361000FC01092610080916000CA
:10019000811104C081E08093600005C0813019F4B2
:1001A00010926000C0DFFF91EF91CF91BF91AF91AE
:1001B0009F918F917F916F915F914F913F912F917F
:1001C0000F900FBE0F901F901895B7DF6ADF82E285
:1001D00090E00DD078948FE413D08BE611D081E2BB
:1001E0000FD08DE00DD08AE00BD09DDFFFCF90BD0A
:1001F00089B988E18AB9579A599A8EE880BD0895DD
:0C0200005D9BFECF8CB90895F894FFCFF1
:00000001FF
