S01700004763634170706C69636174696F6E312E737265635B
S113000019C033C032C031C030C02FC02EC02DC083
S11300102CC02BC02AC029C028C027C026C025C098
S113002024C023C076C121C020C01FC01EC01DC073
S11300301CC01BC011241FBECFEFD2E0DEBFCDBF5A
S113004011E0A0E0B1E0E8E5F3E002C005900D9214
S1130050AC31B107D9F721E0ACE1B1E001C01D92A8
S1130060AF31B207E1F7F2D075C1CACF1F93CF9376
S1130070DF93823071F118F4813041F08EC0833007
S113008009F44AC0843009F466C087C01092850020
S11300901092840010921E0185E31BD1E4E8F0E085
S11300A013C0208131812F3F3F4F29F48F5F80930C
S11300B01E011182108280911E01811102C05B9881
S11300C003C0813009F45B9A80911E01823048F3A9
S11300D064C0109285001092840010921E0186E381
S11300E0F8D0E4E8F0E013C0208131812F3F3F4F86
S11300F029F48F5F80931E011182108280911E016A
S1130100833010F45B9803C0833009F45B9A8091C8
S11301101E01843048F341C010928500109284007F
S113012010921E0187E3D5D0E4E8F0E00FC02081EF
S113013031812F3F3F4F29F48F5F80931E0111823D
S1130140108280911E01833008F45B9A80911E0115
S1130150843068F322C010928500109284001092BB
S11301601E0187E3B6D080911E018230B1F4C4E849
S1130170D0E013E088819981019621F410931E0147
S11301801982188280911E01823008F45B9A8FE5EF
S1130190A0D080911E01823069F3DF91CF911F912D
S11301A008958236D1F030F48F3509F44CC081368D
S11301B031F008958F36A9F1833709F1089510922B
S11301C01C0180E053DF80911C018F5F80931C0130
S11301D08430C0F384E37DD0089582E047DF109239
S11301E01C0181E043DF80911C018F5F80931C011F
S11301F08330B8F310921C0183E038DF089583E064
S113020035DF10921C0181E031DF80911C018F5F8A
S113021080931C018330B8F310921C0183E026DF25
S1130220089583E023DF10921C0182E01FDF809198
S11302301C018F5F80931C018330B8F310921C0162
S113024083E014DF089584E011DF0895CF93DF93F2
S1130250CDB7DEB76B970FB6F894DEBF0FBECDBF38
S1130260E1E8F0E080818360808310928500109241
S11302708400539A88E090E01FD0789488E0E0E00E
S1130280F1E0DE01119601900D928A95E1F7CE011D
S1130290019631D083E1E8E0F1E0DE0119960190A6
S11302A00D928A95E1F7CE01099625D081E311D00C
S11302B080911D0176DFFCCF9093C5008093C4002C
S11302C0E1ECF0E088E18083808180688083789429
S11302D00895E0ECF0E0908195FFFDCF8093C60097
S11302E0E0ECF0E0808186FFFDCFE0ECF0E080817F
S11302F0806480830895CF93DF93EC018881882301
S113030029F02196E6DF89918111FCCFDF91CF910D
S113031008951F920F920FB60F9211248F93AF93EB
S1130320BF93EF93FF93E6ECF0E0808180931D018F
S1130330A0ECB0E08C918F778C9380911D01808329
S1130340FF91EF91BF91AF918F910F900FBE0F90DE
S10B03501F901895F894FFCFEB
S113035848656C6C6F2E0A00456E746572206120C6
S10F03686D6573736167652E3A0A00002E
S9030000FC
